:4000000000800020110000004D0800004D08000008B5044B1A6803F53F5302331A6000F02FFC00BFFA46004010B5054C237833B9044B13B10448AFF300800123237010BDA2
:40004000A081FF1F00000000783B0000084B10B51BB108480849AFF300800848036803B910BD074B002BFBD0BDE81040184700BF00000000783B0000A481FF1F0881FF1FAB
:400080000000000070B5D2B062B60020012101F08FFA01F0C5FA0028FBD08E4801F084FB00F00EFA8C4E33683368002001F04EF900F00EFA51A800215A2200F039FA00F0DB
:4000C0001BF9864D00956FF40004019447A80021F02242F2D00300F015F9009501943DA80121F02242F2D00300F00CF90095019433A80221F02242F2D00300F003F9009560
:40010000019429A80321F02242F2D00300F0FAF800F0C0FA25A8012100F0E2FA21A8022100F0DEFA1DA8032100F0DAFA19A8042100F0D6FA15A8052100F0D2FA336825A8C7
:4001400000F0D6FA21A800F0D3FA1DA800F0D0FA19A800F0CDFA15A800F0CAFABDF960305F4A126893420EDA002BB8BF5B42002AB8BF52429B1A002BB8BF5B42B3EB420F54
:4001800003DB002402E0002400E00124204601F0DDF8002C3ED133A8002100F0C5F829A8002100F0C1F89DF875303BB1BDF8801021B147A809B200F0B7F803E047A800210E
:4001C00000F0B2F89DF885303BB1BDF8901021B13DA809B200F0A8F803E03DA8002100F0A3F89DF8653083B1BDF870306BB11BB2322101FB03F33B4A116893FBF1F15A318A
:4002000051A8C9B200F068F930E051A85A2100F063F92BE09DF8753073B1BDF880100BB2002BB8BF5B42304A1268934204DD33A809B200F079F803E033A8002100F074F8A3
:400240009DF8853073B1BDF890100BB2002BB8BF5B42254A1268934204DD29A809B200F063F803E029A8002100F05EF80021059106A83C2203F06DF8174B1A68BDF88040BA
:40028000BDF87000BDF86010BDF9A030BDF99050009524B2019400B2029009B2039105A8124903F05FF8BDF8CE20BDF91E31BDF9F610009112B2019205A80D49024603F069
:4002C00051F805A80B49024603F04CF805A801F06BFA34E77C3B00000082FF1FFFFF7F7FB83B0000C43B0000B43B0000843B00009C3B0000AC3B000008B500F081FF02F047
:4003000063FA08BD0170828000224280C3800281009BC360019B0361002343618361C36103624362704700BF38B504460D4681EAE171A1EBE57183881AB2914207DD002D8D
:4003400001DA5A424280002D02DD638000E0458023780BBB002D0BDAB4F902000028B8BF4042C0B200F002FF012000F057FF13E0002D0BDDB4F902000028B8BF4042C0B259
:4003800000F0F4FE002000F049FF05E0002000F0EDFE002000F042FF2378012B21D1002D0BDAB4F902000028B8BF4042C0B202F0C1F9012002F016FA13E0002D0BDDB4F941
:4003C00002000028B8BF4042C0B202F0B3F9002002F008FA05E0002002F0ACF9002002F001FA2378022B17D1002D06DA012002F005FA002002F00EFA0EE0002D06DD002006
:4004000002F0FCF9012002F005FA05E0012002F0F5F9012002F0FEF92378032B17D1002D06DA002002F00EFA012002F0FFF938BD002D06DD012002F005FA002002F0F6F9D8
:4004400038BD012002F0FEF9012002F0EFF938BD164A136801331360154A138801339BB21380B3F57A7F20D30022114B1A80114A138801339BB213803B2B16D900220D4B78
:400480001A800D4A138801339BB213803B2B0CD90022094B1A80094A138801339BB21380172B02D90022054B1A8070470082FF1FFC81FF1FFE81FF1F0482FF1F0682FF1F3D
:4004C00008B5024800F068FF08BD00BF5104000008B502F0DBFA08BD08B541700378EBB9084602F05FFC00220D4B02F0EBFD00220C4B02F0BDFC00220B4B02F0B9FC00229B
:400500000A4B02F003FB02F0C5FEA0F2D17240F2CE739A4202D880B202F066FA08BD00BF008066400040AF400000E03F00409F4008B501701146FFF7CFFF08BD08B500F06D
:4005400001FC0D4B187010F0020F07D000F008FCC0F5F42000F21F10074B5860064B1B7813F0010F02D00022034B5A6000F0DCFB024800F0FDFB08BDBC81FF1F1FA10700FB
:4005800008B500F02DFB0D4B187210F0020F07D000F034FBC0F5F42000F21F10074BD860064B1B7A13F0010F02D00022034BDA6000F008FB024800F029FB08BDBC81FF1F23
:4005C0001FA1070008B500F021FD0D4B187410F0020F07D000F028FDC0F5F42000F21F10074B5861064B1B7C13F0010F02D00022034B5A6100F0FCFC024800F01DFD08BD9A
:40060000BC81FF1F1FA1070008B500F04DFC0D4B187610F0020F07D000F054FCC0F5F42000F21F10074BD861064B1B7E13F0010F02D00022034BDA6100F028FC024800F057
:4006400049FC08BDBC81FF1F1FA1070008B502F01BF90E4B83F8200010F0020F07D002F021F9C0F5F42000F21F10084B5862074B93F8203013F0010F02D00022034B5A626E
:4006800002F0F4F8024802F015F908BDBC81FF1F1FA1070008B50D4800F0E2FB00F0B0FB0B4800F02BFB00F0F9FA0A4800F03CFD00F00AFD084800F085FC00F053FC0748A4
:4006C00002F070F902F03EF908BD00BF3D05000081050000C5050000090600004D060000017000234370838143608360704700BF70B504460378012B12D0022B0DD0032B87
:4007000008D0042B02D14F4A167E0BE04D4A92F8206007E04B4A167C04E04A4A167A01E0484A1678012B11D0022B0CD0032B07D0042B02D1434AD5690AE0424A556A07E00B
:40074000404A556904E03F4AD56801E03D4A5568012B02D100F062FB10E0022B02D100F0ABFA0BE0032B02D100F0BCFC06E0042B02D100F005FC01E002F0F2F828B1324B11
:400780001B6863600123637007E02F4B1B6862689B1A462B01D9002363706378002B4FD0002E4DD0A5F5B7434C3B45F2FC32934200D9A568C5F50C43A03313F5167F05DD52
:4007C000B3F5167F02DA0023A38111E048F6A0439D4202D942F2283201E043F2D402A5F50C43A03BC3EB03131B0193FBF2F3A381B4F90C3013F1F00F02DA4FF61073A38164
:40080000B4F90C30F02B01DDF023A381A5602378012B01D100F0F4FA2378022B01D100F03DFA2378032B01D100F04EFC2378042B01D100F097FB2378052B01D102F082F866
:4008400070BD00BFBC81FF1F0082FF1FFEE700BF08B5094B1A681044084BC31A802B02DC054B186005E002F03DFD0C2303604FF0FF32104608BD00BF0C81FF1FE882FF1F65
:4008800008B5104E104D16E029686B68AC68002204E051F8040B43F8040B0432A242F8D1E868002203E0002143F8041B04328242F9D11035013E002EE6D102F019FDFFF7CC
:4008C000E1FBFEE701000000E83D000008B5124A124B1A60124A136843F40073136000230AE0032B03D80F4A52F8231000E00E490E4A42F8231001332F2BF2D90C4B1A7803
:400900000C4B1A70094A0C4B1A6000F0BFF800220A4B1A6008BD00BF0004FA050CED00E014ED00E0000000004D0800000080FF1FBC7600400481FF1F08ED00E00081FF1F5D
:40094000FEE700BFF0B40022174611E050F82760F3B226F0FF0608E001EB420511F812406D78A5550132013BDBB2002BF4D10137282FEBD9F0BC7047064B1B78DBB203F0D5
:400980000701054A11701B09013213704422034B1A707047CF0100496E5800407658004008B50A46002102F0D4FC08BD38B50122294B1A801823294A13700B21023211806E
:4009C0000232137045F6BF5102321180023213700622234B1A705222A3F580731A70214B1B78DBB2204A13704FF4E1621F4B1A8041F25122023B1A80002419250CE01C4B9B
:400A00001B7803F0010343EA440404F003044FF4F07000F011FC013D0DB1032CEFD115B90320FFF78DFF134A4FF48073138007231370002310490B7048200231087013705E
:400A40000532137002220D4B1A700D4A137843F00703137038BD00BF8040004082400040004300400F010049A1460040224200402542004004400040064000400140004085
:400A8000A243004008B502F059FC08BD38B572B6364A137843F00403137000240CE0344963001A1952000A4423445B00C8589188FFF776FF0134E4B2062CF0D900240BE06D
:400AC0002B49A3001A1952000A44D06A116B1022FFF7D8FF0134E4B2002CF1D04FF090402449FFF72FFF244A137843F0020313701032137843F002031370204C237843F089
:400B000040032370A2F58632513A137843F0100313701B481B490822FFF7B4FF1A481B490A22FFF7AFFF1A481A490822FFF7AAFF19481A490822FFF7A5FF1948194908227E
:400B4000FFF7A0FF184A137843F008031370174D61232B70FFF72AFF81232B70FFF70CFF134821460E22FFF78DFF38BDE8460040E03B0000A400004803500140A0430040BB
:400B8000025100408C0A0048F0510040940A004812510040A00A004822510040A80A004832510040B00A00482243004000480040B0430040024A137843F08003137070472F
:400BC00078650040024A137803F07F031370704778650040014B1870704700BF8A650040014B1878704700BF6A65004008B50146014800F0A1FB08BD28650040024B186823
:400C000020F07F40704700BF4865004008B50146014800F091FB08BD08650040024A137843F01003137070477865004000F00300044B1A7802F0FC021A701A781043187018
:400C4000704700BF7865004008B501E0FFF7D6FFFFF7C6FF10F0080FF8D108BD10B50D4C2046FFF7C3FF2046FFF7D0FF00F0ECFA094A137843F01003137000F0E9FAFFF76B
:400C8000CDFF0020FFF7D2FFFFF7DEFF0320FFF7A1FF10BD1FA107009A65004008B5054B1B7823B9FFF7DAFF0122024B1A70FFF781FF08BDE481FF1F024B1878C0F340004F
:400CC000704700BF01510040014B1B689864704708ED00E04001C0B2014B1870704700BF02E400E00422014B1A60704700E100E00422014B1A60704780E100E010B504467B
:400D0000FFF7F6FF2046FFF7DFFF0720FFF7E2FFFFF7E8FF10BD00BF024A137843F080031370704775650040024A137803F07F031370704775650040014B1870704700BF5C
:400D400086650040014B1878704700BF6665004008B50146014800F0EFFA08BD24650040024B186820F07F40704700BF4465004008B50146014800F0DFFA08BD04650040B8
:400D8000024A137843F01003137070477565004000F00300044B1A7802F0FC021A701A7810431870704700BF7565004008B501E0FFF7D6FFFFF7C6FF10F0080FF8D108BDAE
:400DC00010B50D4C2046FFF7C3FF2046FFF7D0FF00F03AFA094A137843F01003137000F037FAFFF7CDFF0020FFF7D2FFFFF7DEFF0320FFF7A1FF10BD1FA10700966500409C
:400E000008B5054B1B7823B9FFF7DAFF0122024B1A70FFF781FF08BDE581FF1F024B187800F00100704700BF01510040014B1B685864704708ED00E04001C0B2014B18703A
:400E4000704700BF01E400E00222014B1A60704700E100E00222014B1A60704780E100E010B50446FFF7F6FF2046FFF7DFFF0720FFF7E2FFFFF7E8FF10BD00BF024A137881
:400E800043F080031370704775640040024A137803F07F031370704775640040014B1870704700BF86640040014B1878704700BF6664004008B50146014800F03DFA08BD81
:400EC00024640040024B186820F07F40704700BF4464004008B50146014800F02DFA08BD04640040024A137843F01003137070477564004000F00300044B1A7802F0FC022B
:400F00001A701A7810431870704700BF7564004008B501E0FFF7D6FFFFF7C6FF10F0080FF8D108BD10B50D4C2046FFF7C3FF2046FFF7D0FF00F088F9094A137843F0100366
:400F4000137000F085F9FFF7CDFF0020FFF7D2FFFFF7DEFF0320FFF7A1FF10BD1FA107009664004008B5054B1B7823B9FFF7DAFF0122024B1A70FFF781FF08BDE681FF1F78
:400F8000024B1878C0F3C000704700BF01510040014B1B681865704708ED00E04001C0B2014B1870704700BF04E400E01022014B1A60704700E100E01022014B1A6070471D
:400FC00080E100E010B50446FFF7F6FF2046FFF7DFFF0720FFF7E2FFFFF7E8FF10BD00BF024A137843F08003137070477B640040024A137803F07F03137070477B6400408A
:40100000014B1870704700BF8C640040014B1878704700BF6C64004008B50146014800F08BF908BD2A640040024B186820F07F40704700BF4A64004008B50146014800F043
:401040007BF908BD0A640040024A137843F01003137070477B64004000F00300044B1A7802F0FC021A701A7810431870704700BF7B64004008B501E0FFF7D6FFFFF7C6FF9F
:4010800010F0080FF8D108BD10B50D4C2046FFF7C3FF2046FFF7D0FF00F0D6F8094A137843F01003137000F0D3F8FFF7CDFF0020FFF7D2FFFFF7DEFF0320FFF7A1FF10BD02
:4010C0001FA107009C64004008B5054B1B7823B9FFF7DAFF0122024B1A70FFF781FF08BDE781FF1F024B1878C0F38000704700BF01510040014B1B68D864704708ED00E034
:401100004001C0B2014B1870704700BF03E400E00822014B1A60704700E100E00822014B1A60704780E100E010B50446FFF7F6FF2046FFF7DFFF0720FFF7E2FFFFF7E8FF8C
:4011400010BD00BF024A137843F08003137070477B650040014B1870704700BF0B650040014B1870704700BF4B650040014B1870704700BF2B650040014B1870704700BF64
:401180008B650040014B1878704700BF6B650040014B1878704700BF5B65004008B501E0FFF7F6FFFFF7EEFF10F0100FF8D108BD10B5114A137803F0C00343F0090313700F
:4011C0000E4C237843F001032370FF20FFF7C2FFFF20FFF7C5FF0020FFF7C8FF0020FFF7CBFF00F031F8237843F01003237000F02FF8FFF7D3FF10BD7B6500409B6500402B
:4012000008B5054B1B7823B9FFF7D2FF0122024B1A70FFF797FF08BDE881FF1F044A137803F0BF03800100F0400018431070704710510040000000000230800803D000BFDB
:4012400001380046FCD17047EFF3108072B6704780F31088704700BF01BE704708B5034B1B7A03FB00F0FFF7E7FF08BD1081FF1F70B504460E46074B1D681F2802D9002069
:40128000FFF7EAFF04F01F04103455F8240045F8246070BD08ED00E038B504460D46072902D90020FFF7D8FF1F2C02D90020FFF7D3FF04F01F0000F1604000F564406D0185
:4012C000EDB2057038BD00BF134B1B78DBB20360124A127843EA02230360114A127843EA024303600F4A127843EA026303600E4B1B78DBB243600D4A127843EA0223436026
:401300000B4A127843EA024343600A4A127843EA02634360704700BF0301004904010049EC4600400201004901010049000100490501004906010049CBB20370C1F30723D5
:401340004370C1F307418170704700BF044A137803F0FD03400000F0020018431070704720510040014B1B681864704708ED00E04001C0B2014B1870704700BF00E400E07E
:401380000122014B1A60704700E100E00122014B1A60704780E100E010B50446FFF7F6FF2046FFF7DFFF0720FFF7E2FFFFF7E8FF10BD00BFF8B5FFF747FF0546404A137807
:4013C00043F0010313701032137843F00103137001273C4B1F700226943B1E7002F5E2521B32137803F07F0313700020FFF736FF354C237803F0F9032370344A137803F009
:40140000DF03137023783B4323703846FFF726FF2820FFF723FF2E4B1A7802F07F021A701A7802F0BF021A702378334323703046FFF714FF237843F0040323700023254AAE
:401440001370013213702846FFF702FF17200721FFF722FF17202049FFF70AFF18200721FFF71AFF18201D49FFF702FF15200721FFF712FF15201A49FFF7FAFE062007217D
:40148000FFF70AFF06201749FFF7F2FE07200146FFF702FF07201449FFF7EAFE08200721FFF7FAFE08201149FFF7E2FE0C200721FFF7F2FE0C200E49FFF7DAFEF8BD00BF65
:4014C000A54300409D6000409443004012600040F851004084600040B91D0000891B0000B51D0000FD1C0000351D0000711D0000C11D000008B5224B18700023214A13702B
:40150000214A1370214A1370214A1370214A1370214A1370214A1370214B4FF400021A604FF080721A604FF400121A6040221A6080221A604FF480721A6011B1012906D009
:401540000BE0184A137803F0FE0313700AE0154A137843F00103137004E0124A137843F0010313700322104B1A708022203B1A700120FFF761FE04220C4B1A7008BD00BF77
:401580002182FF1F2482FF1F4082FF1F4382FF1F3882FF1F4282FF1F4582FF1F2082FF1F00E100E009600040286000401260004038B505460C46064B1B7823B9FFF7FAFE68
:4015C0000122034B1A7028462146FFF793FF38BDE981FF1F00230A4A13700A4A13700A4A13700A4A13700A4A13700A4A13700A4A13700322094B1A708022203B1A707047D1
:401600002482FF1F4082FF1F4382FF1F3882FF1F4282FF1F4582FF1F2082FF1F28600040014B1878704700BF4382FF1F431EDBB2072B3BD8F0B4074600EB40039B001C4C72
:401640002344DB889BB2C3F500739A4207D900EB40039B002344DA88C2F5007292B200EB40039B00124C2344DB7843EA1223114D04012E192B55D3B2737039B909E0CE5C93
:401680003D010D4C665501339BB200E000239342F5D3430003449B00054A134400225A705A79D2B20001054B1A54F0BC704700BF4882FF1FFC5F004078600040FE5F004090
:4016C0000246002001E0013080B2135C002BFAD1704700BF10B4FF2400220EE00A4B9B5C03EB43039B0009490B449B78DBB2834201D1144602220132D2B2012AEED92046EC
:401700005DF8044B704700BF1082FF1F5082FF1F10B5204C2079FFF7DDFF237813F0800F0ED06378DBB2212B2FD11B4B07221A80C0EBC000194A1044586000F093FA10BD47
:40174000144B5B78DBB2202B02D0222B10D01EE0114A07231380C0EBC00310490B4453600F4A135C43F00103135400F0A3FA10BD084B9B780B4A22F81030094A135C43F0B7
:401780000203135400F02EF910BD002010BD002010BD00BF006000402C82FF1F2081FF1F0882FF1F1C82FF1F2DE9F8438046224B1B78224AD65CF6B2FFF782FF054600276B
:4017C000344606EB46039B001D4A13441B899BB2AB4208D206EB46039B001344B3F808901FFA89F900E0A946304608EB07014A46FFF71CFFC9EB0505ADB245B906EB4603E4
:401800009B000F4A13441B899BB2994510D14F44BFB204EB44039B00094A13445B7813F0FF0FF6D025B9304600210A46FFF7FEFE002DC5D1BDE8F883EA81FF1F0C82FF1FB5
:401840004882FF1FC37803F0030390F9020000280FDA032B06D002F001030B48C15442F001020EE0C2F380030848C15442F0040207E0032B05D0C2F340030548C15442F0E0
:4018800002021046704700BF0C82FF1F1082FF1F1482FF1F1C4B19781C4A13880B449BB2138000230EE01A4A51680978C9B21948C1545168013151600133DBB21188013950
:4018C00089B21180124A128892B20AB1072BEAD90D4A1278D2B2082A00D05BB10E490A7882F080020A700F210C4A117002210C4A117004E0022209490A7009490A70094A84
:401900001370014A137070472082FF1F2282FF1F2C82FF1F00600040B682FF1F4182FF1F2482FF1F4482FF1F0222074B1A708022064B1A700F22064B1A700023054A137054
:40194000054A1370012070472482FF1FB682FF1F4182FF1F2082FF1F4482FF1F08B5FFF799FF08BD10B4184B197801F00F010239C9B2164A13880B449BB21380002010E065
:40198000134B5C68134A125CD2B222705A6801325A600130C0B20139C9B21A88013A92B21A800B4B1B889BB20BB10029E8D10A4B19700A4A137883F0800313700B22084BC8
:4019C0001A705DF8044B7047296000402282FF1F2C82FF1F006000404482FF1FB682FF1F4182FF1F0623064A1370064A13708022054B1A700022054B1A700120704700BF12
:401A00002482FF1F4182FF1FB682FF1F4482FF1F064B9B6843B1054B9A6810709A6804490988518000229A60704700BF2C82FF1F2282FF1F08B5134B1A78D2B21A701B788E
:401A4000DBB213F0800F02D00F4A137008BD0220FFF7DEFF0D4B1B7803F06003202B05D0402B06D043B900F095FC06E001F01CF803E000F037FE00E0002010B90322024B92
:401A80001A7008BD286000404182FF1F0060004008B5084B1978084A13880B449BB213800022064B1A700120FFF7B2FF0322044B1A7008BD2082FF1F2282FF1F2482FF1F03
:401AC0004182FF1F08B50B4B1B78DBB2042B06D0062B07D0022B0BD1FFF7DAFF08BDFFF741FF08BD0320FFF793FF0322024B1A7008BD00BF2482FF1F4182FF1F08B500227E
:401B0000044B1A700120FFF783FF0322024B1A7008BD00BF2482FF1F4182FF1F08B50B4B1B7813F0FF0F07D0084A137843F0800307490B70002313700022064B1A7001205E
:401B4000FFF766FF0322044B1A7008BD4282FF1F086000402482FF1F4182FF1F08B5094B1B78DBB2042B06D0062B07D0022B07D1FFF7F4FE08BDFFF7C1FF08BDFFF7CEFFEA
:401B800008BD00BF2482FF1F08B5284B1B78DBB213F0100F48D013F0800F0CD003F00F03012B16D1FFF746FF214B1B7813F0800F11D1012312E013F0400F03D0FFF7CEFF21
:401BC00001230BE013F0200F07D0FFF77BFF012304E0002302E0002300E0002323B3134B1B7813F0800F1FD1124B1B78124A12781343124A13701278D2B29A4214D10C4BB0
:401C00001B78DBB2094A127812F0800F07D1084B1B78DBB2054A1370137803F00F03044A1278D2B29342EAD108BD00BF286000404182FF1FB682FF1F4482FF1F296000404D
:401C40000022064B1A80064B9B682BB1044A916800230B7092685380704700BF2282FF1F2C82FF1F08B50F4B1B889BB213B9FFF75BFE15E002220C4B1A7000220B4B1A7053
:401C8000FFF7DEFF0A4AD179937943EA0123054A128892B29A4201D9024A1380FFF7FAFD012008BD2C82FF1F2482FF1FB682FF1F0060004008B504220B4B1A7080220B4B80
:401CC0001A70FFF7BDFF0A4AD179937943EA0123084A128892B29A4201D9064A13800B22054B1A70012008BD2482FF1FB682FF1F006000402C82FF1F4182FF1F0A4A1378B1
:401D000003F0FE031370094B9B7C094B1B7B03F00303012B04D0064AD37B83F08003D3730122034B5A7370470B600040FC5F00404882FF1F0B4A137803F0FD0313700A4B36
:401D400093F82230094B1B7E03F00303012B04D0064AD37E83F08003D3760122034B5A76704700BF0B600040FC5F00404882FF1F0D4A137803F0FB0313700C4B93F8323041
:401D80000B4B93F8243003F00303012B06D0084A92F8273083F0800382F827300122044B83F82520704700BF0B600040FC5F00404882FF1F704700BF08B5FFF70BFC08BD2E
:401DC00008B500F09BFC08BD70B588B0054603AC174E0FCE0FC43368237035B322232B7003236B7001A8FFF76FFA002402231AE008AA224412F81C2C08A901EB121111F8F9
:401E0000141CE954581C00212954981C02F00F0208AE324412F8142C2A54DA1CA9540134E4B20433DBB2212BE2D908B070BD00BF183C000010B401223DE0114613010C2458
:401E40002148C45402EB42039B00204803445B7913F0FF0F12D002EB42039B0003441B7913F0800F04D01001194B03449C700AE01001174B03440820987004E01001144BA0
:401E80000344802098704B000B449B000F480344DC88E4B208010C4901448C71D888C0F30720C871D888C0B20871DB88C3F307234B710132D2B2082ABFD9FF22054B1A708D
:401EC0005DF8044B704700BF706000404882FF1FFC5F00400A600040074B1B78074A02EBC30253681A7C824203D903EBC003586970470020704700BF2182FF1F2C3C0000CA
:401F0000F8B5404B1B7813F0FF0F79D03D4B18780138C0B2FFF7E0FF047AC2683A4B1878C0B200236AE01178814264D13749095CC9B25578A9425ED1917801F07F01D678B8
:401F400006F00306DFF8C8E04D000D44AD000EEB05074FF0000C87F803C092F802C087F804C092F803C00EF805C095883D8192F90250002D0DDA012E01D1072700E00D2750
:401F80004D000D44AD00224E35446F7101266E700CE0012E01D1052700E009274D000D44AD001B4E35446F7100266E70DFF868E00F010EEB07060125B57001FA05F52944EC
:401FC0008900134D29440D89C5F307250EF807500D89EDB27570CE88F6B20E4D3D44AE71CE88C6F30726EE71CE88F6B22E71C988C1F30721697108320133DBB2A34292D31D
:40200000F8BD00BF4382FF1F3882FF1FB482FF1F4882FF1F70600040FC5F0040034B1A78034B03EBC2035868704700BF2182FF1F2C3C000008B5074B18780138C0B2FFF70A
:402040004BFF28B14268127900EBC203586908BD002008BD4382FF1F2DE9F84300220EE06F4E53009D18AD00741900217155A170E1702181A172617061710132D2B2082A20
:40208000EED940B90AE000226649CA546649CA540133DBB200E00023012BF4D9634B1B7813F0FF0F00F0B980604B18780138C0B2FFF712FF80464368DB7913F0400F05D0A9
:4020C0005B4A137843F00103137004E0584A137803F0FE03137098F808704FF0000901266CE0D8F80C50002464E0AB7803F07F039E425CD1314606EB46039B00484803444F
:402100001B899BB2A888834205D206EB46039B00434A134418812B784248C35CDBB26878834244D195F802C03D484B000B449B0000EB030E8EF804C095F803E000F803E063
:40214000EB7803F0030395F90200002811DA012B02D14FF0070C01E04FF00D0CDFF8C0E04B0058188000704480F805C00123437012E0012B02D14FF0050C01E04FF0090CE6
:4021800027484FEA410E0EEB01039B00034483F805C0194600234B70AB790A2B01D0022B05D1284631464A46FFF74CFB814608350134E4B2BC4298D30136F6B2082E90D937
:4021C000D8F80C0000220CE0837803F07F0310F8084B03EB43039B0016490B449C700132D2B2BA42F0D3FFF725FF134B1860002301210EE00A4C4A00501880002044C380D9
:40220000028913449BB203F0010213449BB20131C9B20829EED9FFF70DFEBDE8F88300BF4882FF1FB482FF1F2882FF1F4382FF1F4582FF1F5082FF1F3C82FF1F08B5154B9B
:402240001A7902F07F02531EDBB2072B20D8530013449B0010490B44997841F0010199700021D970597841F0020159701B7913F0800F05D01201094B13448D229A7004E068
:402280001201064B134489229A70FFF7ABFB08BD002008BD006000404882FF1FFC5F0040264B1B7903F07F035A1ED2B2072A43D810B55A001A44920021490A44917801F0C2
:4022C000FE0191700021D17019017F241D484454517801F0FD015170127912F0800F14D003EB4302920016490A445278D2B2012A05D11B0102461A440C23937019E01B017F
:40230000104A1A440D23937013E003EB430292000B490A445278D2B2012A05D11B01094A1A440823937004E01B01064A1A4409239370FFF757FB10BD0020704700600040A5
:402340004882FF1FFC5F004010B50E4B1C79E4B20D4B18780138C0B2FFF7BEFD43681B799C4201D9022C0AD8084A135DDBB208490B55044B9B78DBB21355012010BD0020E1
:4023800010BD00BF006000404382FF1FB482FF1F2882FF1F10B59B4B1B78DBB200219A4A118013F0800F00F0AD80964A5278D2B20A2A00F27281DFE812F069007001700187
:4023C0007001700170010B007001920070019A008C4BDB78DBB2012B09D1FFF71FFE4268894B5A6012221A80FFF73CFC10BD854BDB78DBB2022B13D1824B9878FFF76CFDA3
:40240000002800F04C8142687F4B5A605A68D1785A68927842EA01221A80FFF723FC10BD784BDB78DBB2032B05D02CE00A7811440133DBB201E000237449724A9278D2B292
:402440009A4203D90A7812F0FF0FEFD16D4B9B7813F0FF0F0BD06B4B9B78DBB26C4A127C934204D16B4C2046FFF7AEFC21460B7813F0FF0F00F015810B78634A13805160A5
:40248000FFF7F0FB10BD00F00FFB10BD13F0030317D0022B40F007815B490B80594B1B7903F07F0303EB43039B005B4A13449A78D2B25A4B1A7000225A704B60FFF7D2FB0C
:4024C00010BD514902230B80554B1A78D2B2534B1A7000225A704B60FFF7C4FB10BD4A4B01221A804F4A5A60FFF7BCFB10BD464A01231380434B1B794B490B445360FFF7BA
:40250000B1FB10BD3F4A5278013A0A2A00F2CD80DFE812F04B00CB009600CB000B00CB00CB00CB001300CB003000364B9B78DBB23E4A1370FFF756FA10BD324B9B7803F0A5
:40254000FF041BB1601EC0B2FFF7C6FC04B110B9002C40F0AC80334B1B78DBB29C4206D0304B1C700120324B1870FFF775FDFFF739FA10BDFFF7E8FE002800F09A80214A88
:402580001379DBB21279D2B22A490A702A4AD25C2549C95CD3B28B4204D00122244B1A70FFF7AEFCFFF71EFA10BD03F00303012B17D04BB1022B7ED1124B9B7813F0FF0F0F
:4025C0007BD1FFF76DFE10BD0E4B9B78DBB2012B75D1134A137803F0FD031370FFF702FA10BD084B1B79DBB2012B6AD8054B98781B79DBB21149CA5C22EA0002CA54FFF7D4
:40260000F1F910BD006000402C82FF1F943C0000783D0000BC82FF1F4882FF1FEC81FF1F4582FF1F4382FF1FB482FF1F4282FF1F4082FF1F3882FF1F2882FF1FB882FF1F4D
:4026400003F00303012B17D04BB1022B3BD1224B9B7813F0FF0F38D1FFF7F0FD10BD1E4B9B78DBB2012B32D11C4A137843F002031370FFF7B7F910BD174B1B79DBB2012BC9
:4026800027D8154B98781B79DBB21549CA5C22EA0002CA54FFF7A6F910BD002010BD002010BD002010BD002010BD002010BD002010BD002010BD002010BD002010BD002003
:4026C00010BD002010BD002010BD002010BD002010BD002010BD00BF006000404582FF1FB882FF1F044B1B7813F0800F01D0024B5B780020704700BF00600040024B187858
:40270000C0F38010704700BF8F450040024A137843F080031370704779640040014B1870704700BF09640040014B1870704700BF49640040014B1870704700BF29640040A3
:40274000014B1870704700BF89640040014B1878704700BF69640040014B1878704700BF5964004008B501E0FFF7F6FFFFF7EEFF10F0100FF8D108BD10B5114A137803F07D
:40278000C00343F0090313700E4C237843F001032370FF20FFF7C2FFFF20FFF7C5FF0020FFF7C8FF0020FFF7CBFFFEF74DFD237843F010032370FEF74BFDFFF7D3FF10BDE4
:4027C000796400409964004008B5054B1B7823B9FFF7D2FF0122024B1A70FFF797FF08BDF081FF1F044A137803F0EF03000100F0100018431070704710510040044A137897
:4028000003F0FE0300F0010018431070704700BF30510040044A137803F0FD03400000F0020018431070704730510040044A137803F0F703C00000F0080018431070704740
:4028400030510040044A137803F0FB03800000F0040018431070704730510040024A137843F080031370704771640040024A137803F07F031370704771640040014B1870BB
:40288000704700BF82640040014B1878704700BF6264004008B501460148FEF74DFD08BD20640040024B186820F07F40704700BF4064004008B501460148FEF73DFD08BDD8
:4028C00000640040024A137843F01003137070477164004000F00300044B1A7802F0FC021A701A7810431870704700BF7164004008B501E0FFF7D6FFFFF7C6FF10F0080F47
:40290000F8D108BD10B50D4C2046FFF7C3FF2046FFF7D0FFFEF798FC094A137843F010031370FEF795FCFFF7CDFF0020FFF7D2FFFFF7DEFF0320FFF7A1FF10BD1FA1070023
:402940009264004008B5054B1B7823B9FFF7DAFF0122024B1A70FFF781FF08BDF181FF1F024B1878C0F30010704700BF01510040014B1B685865704708ED00E04001C0B29E
:40298000014B1870704700BF05E400E02022014B1A60704700E100E02022014B1A60704780E100E010B50446FFF7F6FF2046FFF7DFFF0720FFF7E2FFFFF7E8FF10BD00BFE9
:4029C000024A137843F08003137070477F640040014B1880704700BF1C680040014B1880704700BF9C680040014B1880704700BF5C680040014B1870704700BF8F64004056
:402A0000014B1878704700BF6F640040014B188880B27047BC68004008B501E0FFF7F6FFFFF7EEFF10F0100FF8D108BD10B5154A137803F0C00343F0090313701F321378DC
:402A400043F001031370104C237843F00103237049F64040FFF7BCFF49F64040FFF7BEFF40F6B830FFF7C0FF0020FFF7C3FFFEF7EBFB237843F010032370FEF7E9FBFFF730
:402A8000CBFF10BD7F6400409F64004008B5054B1B7823B9FFF7CAFF0122024B1A70FFF78FFF08BDF281FF1F08B5124B1B7803F00303012B02D0022B04D00FE00D4B1B798A
:402AC000DBB20CE00B4B1B7903F07F0303EB43039B00094A13449B78DBB200E00023074A1268D35C022B02D1FEF712FE08BD002008BD00BF006000405082FF1F3C82FF1F0E
:402B000081F0004102E000BF83F0004330B54FEA41044FEA430594EA050F08BF90EA020F1FBF54EA000C55EA020C7FEA645C7FEA655C00F0E2804FEA5454D4EB5555B8BFE9
:402B40006D420CDD2C4480EA020281EA030382EA000083EA010180EA020281EA0303362D88BF30BD11F0004F4FEA01314FF4801C4CEA113102D0404261EB410113F0004FD7
:402B80004FEA03334CEA133302D0524263EB430394EA050F00F0A780A4F10104D5F1200E0DDB02FA0EFC22FA05F2801841F1000103FA0EF2801843FA05F359410EE0A5F145
:402BC00020050EF1200E012A03FA0EFC28BF4CF0020C43FA05F3C01851EBE37101F0004507D54FF0000EDCF1000C7EEB00006EEB0101B1F5801F1BD3B1F5001F0CD349085F
:402C00005FEA30004FEA3C0C04F101044FEA445212F5800F80F09A80BCF1004F08BF5FEA500C50F1000041EB045141EA050130BD5FEA4C0C404141EB010111F4801FA4F1E0
:402C40000104E9D191F0000F04BF01460020B1FA81F308BF2033A3F10B03B3F120020CDA0C3208DD02F1140CC2F10C0201FA0CF021FA02F10CE002F11402D8BFC2F1200CED
:402C800001FA02F120FA0CFCDCBF41EA0C019040E41AA2BF01EB0451294330BD6FEA04041F3C1CDA0C340EDC04F11404C4F1200220FA04F001FA02F340EA030021FA04F36B
:402CC00045EA030130BDC4F10C04C4F1200220FA02F001FA04F340EA0300294630BD21FA04F0294630BD94F0000F83F4801306BF81F480110134013D4EE77FEA645C18BF16
:402D00007FEA655C29D094EA050F08BF90EA020F05D054EA000C04BF1946104630BD91EA030F1EBF0021002030BD5FEA545C05D14000494128BF41F0004130BD14F5800404
:402D40003CBF01F5801130BD01F0004545F0FE4141F470014FF0000030BD7FEA645C1ABF194610467FEA655C1CBF0B46024650EA013406BF52EA033591EA030F41F4002188
:402D800030BD00BF90F0000F04BF0021704730B54FF4806404F132044FF000054FF0000150E700BF90F0000F04BF0021704730B54FF4806404F1320410F0004548BF40425D
:402DC0004FF000013EE700BF42004FEAE2014FEA31014FEA02701FBF12F07F4393F07F4F81F06051704792F0000F14BF93F07F4F704730B54FF4607401F0004521F000417F
:402E000020E700BF50EA010208BF704730B54FF000050AE050EA010208BF704730B511F0004502D5404261EB41014FF4806404F132045FEA915C3FF4DCAE4FF003025FEA5F
:402E4000DC0C18BF03325FEADC0C18BF033202EBDC02C2F1200300FA03FC20FA02F001FA03FE40EA0E0021FA02F11444C1E600BF70B54FF0FF0C4CF4E06C1CEA11541DBF39
:402E80001CEA135594EA0C0F95EA0C0F00F0DEF82C4481EA030621EA4C5123EA4C5350EA013518BF52EA033541F4801143F4801338D0A0FB02CE4FF00005E1FB02E506F0B8
:402EC0000042E0FB03E54FF00006E1FB03569CF0000F18BF4EF0010EA4F1FF04B6F5007F64F5407404D25FEA4E0E6D4146EB060642EAC62141EA55514FEAC52040EA5E5085
:402F00004FEACE2EB4F1FD0C88BFBCF5E06F1ED8BEF1004F08BF5FEA500E50F1000041EB045170BD06F0004646EA010140EA020081EA0301B4EB5C04C2BFD4EB0C0541EA92
:402F4000045170BD41F480114FF0000E013C00F3AB8014F1360FDEBF002001F0004170BDC4F10004203C35DA0C341BDC04F11404C4F1200500FA05F320FA04F001FA05F2C7
:402F800040EA020001F0004221F0004110EBD37021FA04F642EB06015EEA430E08BF20EAD37070BDC4F10C04C4F1200500FA04F320FA05F001FA04F240EA020001F0004111
:402FC00010EBD37041F100015EEA430E08BF20EAD37070BDC4F1200500FA05F24EEA020E20FA04F301FA05F243EA020321FA04F001F0004121FA04F220EA020000EBD370B2
:403000005EEA430E08BF20EAD37070BD94F0000F0FD101F00046400041EB010111F4801F08BF013CF7D041EA060195F0000F18BF704703F00046520043EB030313F4801F76
:4030400008BF013DF7D043EA0603704794EA0C0F0CEA135518BF95EA0C0F0CD050EA410618BF52EA4306D1D181EA030101F000414FF0000070BD50EA410606BF10461946CC
:4030800052EA430619D094EA0C0F02D150EA013613D195EA0C0F05D152EA03361CBF104619460AD181EA030101F0004141F0FE4141F470014FF0000070BD41F0FE4141F4C9
:4030C000780170BD70B54FF0FF0C4CF4E06C1CEA11541DBF1CEA135594EA0C0F95EA0C0F00F0A7F8A4EB050481EA030E52EA03354FEA013100F088804FEA03334FF080554A
:4031000045EA131343EA12634FEA022245EA111545EA10654FEA00260EF000419D4208BF964244F1FD0404F5407402D25B084FEA3202B61A65EB03055B084FEA32024FF464
:4031400080104FF4002CB6EB020E75EB030E22BFB61A754640EA0C005B084FEA3202B6EB020E75EB030E22BFB61A754640EA5C005B084FEA3202B6EB020E75EB030E22BFD5
:40318000B61A754640EA9C005B084FEA3202B6EB020E75EB030E22BFB61A754640EADC0055EA060E18D04FEA051545EA16754FEA06164FEAC30343EA52734FEAC2025FEA86
:4031C0001C1CC0D111F4801F0BD141EA00014FF000004FF0004CB6E711F4801F04BF01430020B4F1FD0C88BFBCF5E06F3FF6AFAEB5EB030C04BFB6EB020C5FEA500C50F19A
:40320000000041EB045170BD0EF0004E4EEA113114EB5C04C2BFD4EB0C0541EA045170BD41F480114FF0000E013C90E645EA060E8DE60CEA135594EA0C0F08BF95EA0C0FE9
:403240003FF43BAF94EA0C0F0AD150EA01347FF434AF95EA0C0F7FF425AF104619462CE795EA0C0F06D152EA03353FF4FDAE1046194622E750EA410618BF52EA43067FF47E
:40328000C5AE50EA41047FF40DAF52EA43057FF4EBAE12E74FEA410212F5001215D211D56FF47873B3EB625212D94FEAC12343F0004343EA505311F0004F23FA02F018BFDE
:4032C000404270474FF00000704750EA013005D111F0004008BF6FF0004070474FF00000704700BF014B1868704700BF9C81FF1F0E4B70B51E460E4C0025E41AA410A542D4
:4033000004D056F8253098470135F8E700F05AFD084B094C1E46E41AA4100025A54204D056F8253098470135F8E770BDD03D0000D03D0000D03D0000D83D000010B5431E17
:403340000A44914204D011F8014B03F8014FF8E710BD03460244934202D003F8011BFAE7704700000EB400B54FF402719CB0ADF814106FF00041049107914FF6FF711DAB9B
:40338000ADF81610084953F8042B02900690086802A9019300F064F8029B00221A701CB05DF804EB03B070479C81FF1F2DE9F0478E688246B3420C469046994640D38A8929
:4033C00012F4906F3AD02568096902236F1A656905EB450595FBF3F57B1C4B449D4238BF1D4653050FD5294600F030FB064698B121693A46FFF7A2FFA38923F4906343F0CD
:403400008003A38113E02A4600F076FB064670B95046216900F0D6FA0C23CAF80030A3894FF0FF3043F04003A381BDE8F08726613E4426604E466561ED1BA560B14500D29D
:403440004E4632462068414600F0A0FAA36800209B1BA36023681E442660BDE8F08700002DE9F0439DB003938B8906461C060D4690460CD50B6953B9402100F0E7FA286042
:40348000286110B90C233360CCE040236B610023099320238DF8293030238DF82A3043461C4613F8012B1AB9B4EB08090FD002E0252AF5D1F8E73046294642464B46FFF7BD
:4034C00075FF013000F0A980099B4B4409932378002B00F0A28000234FF0FF3204930793059206938DF853301A9304F101084446DFF8489121784846052200F039FA08F11C
:403500000108049B30B1C9EB00000122824013430493ECE7D80644BF20228DF85320190744BF2B228DF8532022782A2A02D0079923460EE0039A0134111D12680391002A37
:40354000BBBF524243F0020307920792B8BF04930AE01C4622780133303A092A03D80A2000FB0121F5E7079123782E2B1AD163782A2B0AD1039B02341A1D1B680392002B40
:40358000B8BF4FF0FF3305930CE0611C00220C4623780131303B092B03D80A2000FB0232F5E70592DFF8988021784046032200F0DFF938B1049AC8EB0000402383401343EA
:4035C0000493013421781A48062204F101088DF8281000F0CDF988B1164B33B9039B073323F007030833039313E003AB0093304604A92A46104BAFF3008007E003AB0093B3
:40360000304604A92A460C4B00F092F8421C074603D0099B3B44099341E7AB895B0601D4099801E04FF0FF301DB0BDE8F08300BF983D000000000000AD3300008E3D000043
:40364000943D00002DE9F84391461F468A680B6906469342B8BF1346C9F8003091F843200C46DDF8208012B10133C9F800302368990642BFD9F800300233C9F8003025682A
:4036800015F006051CD094F843302268003318BF012392061FD5E118302081F843005A1C94F845102244023382F8431013E03046394604F119020123C047013007D00135A6
:4036C000E368D9F800209B1A9D42F0DBDBE74FF0FF30BDE8F8833046394604F14302C0470130F4D02268D9F80050E36802F00602042A08BF5D1B2269A3680CBF25EAE5758D
:4037000000259342C4BF9B1AED184FF00009A9450ADA3046394604F11A020123C0470130D5D009F10109F2E70020BDE8F88300002DE9FF410C461746227E98466E2A0646AD
:403740000A9B01F1430100F0B08012D8632A23D00AD8002A00F0BD80582A40F0CC8084F84520DFF804E257E0642A1ED0692A1CD0C1E0732A00F0B18009D86F2A2ED0702A6C
:4037800040F0B980226842F0200222603FE0752A24D0782A3BD0AEE01A6804F14205111D1960136884F84230A9E020681A6810F0800F02D0101D186008E010F0400F02F1C2
:4037C0000400186002D0B2F9003000E01368002B3EDA2D225B4284F8432039E020681A6810F0800F02D0101D186007E010F0400F02F10400186001D0138800E01368227E02
:40380000DFF864E16F2A0CBF08220A221CE07822DFF858E184F845202268186812F0800F00F104051D6003D1550601D5038800E00368D00744BF42F0200222601BB9226830
:4038400022F0200222601022002084F8430002E0DFF814E10A226568002DA8BF2068A560A4BF20F00400206003B965B10D46B3FBF2F002FB10331EF8033005F8013D034600
:403880000028F4D100E00D46082A0BD12368DA0708D5236962689A42DEBF302305F8013C05F1FF35491B21612EE025681A6815F0800F606903D0151D1D60136808E015F0C1
:4038C000400F02F104051D60136801D0188000E01860002323610D4616E01A68111D1960156800212846626800F042F808B1401B6060636804E004F1420584F842200123EA
:403900002361002384F84330CDF800803046214603AA3B46FFF796FE013002D14FF0FF301FE0304639462A462369C0470130F5D023689B0705D4E068039B9842B8BF18461D
:403940000FE00025E368039A9B1A9D42F3DA3046394604F119020123C0470130DED00135F0E704B0BDE8F0819F3D0000B03D000010B5C9B202449042034605D01C78013000
:403980008C42F8D1184610BD002010BD814210B501EB020301D3421E0BE09842FBD28118D21AD34204D013F8014D01F8014DF8E710BD994204D011F8014B02F8014FF8E732
:4039C00010BD000030B500293CD051F8042C0B1F1D49002AB8BF9B180A680C4612B95A600B6030BD93420DD219685818904201BF5A5852181A60426823605A6030BD994266
:403A000003D80A4651680029F9D1146815199D420AD11B682344D0188842136012D10868034413604B680CE002D90C23036030BD1C681819884201BF086849680019186045
:403A40005960536030BD00BFF881FF1F70B5CC1C24F0030408340C2C38BF0C24002C064603DA0C233360002070BD8C42F9D3204A136810461946A1B10A68121B0ED40B2A34
:403A800003D90A608B188C501FE08B420BBF5A684A6802605A6018BF0B4616E00B464968E9E7144D2B681BB9304600F04BF828603046214600F046F8421C0346D1D0C51CFE
:403AC00025F0030585420AD11C6003F10B001A1D20F00700821A0AD05142995070BD3046E91A00F02FF80130BBD02B46ECE770BDF881FF1FF481FF1FF8B5074615460E468F
:403B000021B91146BDE8F840FFF7A0BF1AB9FFF759FF2846F8BD00F025F8A8420ED238462946FFF793FF044650B131462A46FFF705FC38463146FFF745FF01E03046F8BD2E
:403B40002046F8BD38B5064C0023054608462360FCF77EFE431C02D1236803B12B6038BDE082FF1F51F8040C0028BEBF091851F8043CC0180438704700000000496E6974C5
:403B80002E2E2E005B256C645D202564202564202564202564202564000000002573202D20256420256420256400000025730D0A00000000640000000F0000001900000066
:403BC00000000000F00000004600000058020000CC5B0000A08C0000C8AF00001FA10700405100403000C0510040100000000140001000140140000800400140000A004CBD
:403C0000014000021050014010000000005001407C0A004810000000303132333435363738394142434445460000000001000000343C000001000000783D00000000000058
:403C400000000000010000004C3C000001000000343D000003000000783C00000000000000000000000000000000000000000000743C0000020A0000000081030800020048
:403C80000100820240000A000100030240000A0002030000040309042C0343007900700072006500730073002000530065006D00690063006F006E00640075006300740016
:403CC0006F007200100355005300420055004100520054003803430044004300200043006F006D006D0075006E00690063006100740069006F006E00200049006E007400E4
:403D0000650072006600610063006500260343004400430020004400610074006100200049006E0074006500720066006100630065000000090243000201018032090400CE
:403D4000000102020103052400100104240202052406000105240100010705810308000A09040100020A000004070582024000000705030240000000120100020200000879
:403D8000B40432F201000102800100004300232D302B2000686C4C00656667454647003031323334353637383941424344454600303132333435363738396162636465666C
:403DC00000000000F8B500BFF8BC08BC9E4670474D000000CD080000F8B500BFF8BC08BC9E46704729000000F83D00000881FF1F980000004801000000000000E882FF1F35
:403E00000000E02EC05D00001800000000366E0100C2010000000800C201000000080000A12000000000020000000000000000000000000000000000000000000000000041
:403E40000000000000000000000000008C3D000000000000000000000000000000000000000000000000000000000000000000000000000000000000000000000000000079
:403E80000000000000000000000000003C81FF1F00000000000000000000000000000000000000000000000000000000000000000000000000000000000000000000000027
:403EC00000000000000000000000000000000000000000000000000000000000000000000000000000000000000000000000000000000000000000000000000000000000C2
:403F00000000000000000000000000000000000000000000000000000000000000000000000000000000000000000000000000000000000000000000000000000000000081
:403F40000000000000000000000000000000000000000000000000000000000000000000000000000000000000000000000000000000000000000000000000000000000041
:403F80000000000000000000000000000000000000000000000000000000000000000000000000000000000000000000000000000000000000000000000000000000000001
:020000040003F7
:0200000480007A
:4000000001450040045200400564004003650040420001401A01014033020140240301404204014020050140330601402007014040080140270901404B0A01402A0B0140C1
:400040002F0C01401E0D0140420E0140210F01404214014022150140321601401F1701404618014027190140431A01402A1B014005400140134101400E420140094301400A
:400080000545014001460140044701400D48014005490140054C0140044D014005500140035101407E020820098011087C40820F860F890D8C0F8F0D860F8A0F8B0D4042EC
:4000C000420149FF4AFF4BFF4F0150185A045D095F016040624064406540668068806A806C806E808E0F8F039303960D97029A089B01A20FA404A602A802A901AA04AB04F8
:40010000B001B203B304B408B503B604BE51C042C201C9FFCAFFCBFFCD83CE03CF01D018D293D804D904DA04DB04DC99DD99DF01E040E240E440E540E680E880EA80EC8097
:40014000EE8007020D200E2016A017201C481D821E2227282E20372A3E80404041A045A26D606F0476807702C080C260C470CA20CCE0CE10D0BD09010B02110415011702D8
:40018000183019031AC91EFF243026C328502AAE2C552D032EA032F03307340F3A203B0C4042420145EC4620480B49FF4AFF4BFF4D834E034F0150185403560458045904C2
:4001C0005A045B045C995D995F016040624064406540668068806A806C806E800E0A154017241E2827202D40360537203D2045A24F0555205C805E205F0566018201881059
:40020000914098809B049E20A192A201A520AC84C2C0C4E0CA10CCE0CE20D0B0D6F0D880E020E6024023420149FF4AFF4BFF4F0150185A045D095F016040624064406540A5
:40024000668068806A806C806E8086088E0F9303960D97029B01A20FA404A501A602A704A802AA04AF03B008B203B304B401B503B604BE51C023C201C9FFCAFFCBFFCD834C
:40028000CE03CF01D018D293D804D904DA04DB04DC99DD99DF01E040E240E440E540E680E880EA80EC80EE80062007020E201410168017201C041DA01E6227282C102E808E
:4002C000372A40044180422045A046206F05768077029810B620C0A0C220C470CA50CCE0D07EE001E20AEC400C5A0EA0110115021704183019061AC31EFF2430250226C6E7
:40030000270428502AAD2D0632F03307340F3A203B0C4023420145EC4620480B49FF4AFF4BFF4D834E034F01501854035604580459045A045B045C995D995F0160406240D8
:4003400064406540668068806A806C806E80058007010E0A17241E281F1027202D802F103601372445A046204F0556205E605F056780874092409B059E20A1A0A201C0804F
:40038000C2C0C460CA50CCE0D070D6F0D880042006461103130C14101505160F170A18601A0D1B0F1C201E4329032B0C2C6A2D052F0A330F3470360F3AB0580459045C99BF
:4003C0005F0186048B018E029201A602AD01B001B402B604B701BE10C040C102C5D2C610C80BC9FFCAFFCBFFCDA0CF04D018D280D405D804D904DA04DB04DF01E040E2C09E
:40040000E440E540E6C0E8C0EAC0ECC0EEC000400210040809020E2A10201540184019401A041E0A2240271029402D402F0A30203120361538204040412048204901501025
:40044000521059015A847102B010B180C025C2E8C484CA38CCE0CE04D005D60B4042420149FF4AFF4BFF4F0150185A045D095F016040624064406540668068806A806C80C6
:400480006E808130820F87028A0D8F03913094049602970199109A089B209E0FA108A402A510A604A720A901AB04AF03B001B208B303B403B504B604B738BBC0BE45C042E4
:4004C000C201C9FFCAFFCBFFCD83CE03CF01D018D293D804D904DA04DB04DC99DD99DF01E040E240E440E540E680E880EA80EC80EE80051007400C880D2017081C601D925B
:400500001E021F4024012504268027082C0A2F50361037093C813D08404041A045A26C056E206F0174C2774080089320940A9D80A120A582A681C050C2E0C420CAF0CCE037
:40054000CED0D0BDE20A000A0606130F19031A031B0C1D051E0F1F0A2503270C2D052E0D2F0A340F350F3A204042420145EC4620480B49FF4AFF4BFF4D834E034F0150180F
:4005800054035604580459045A045B045C995D995F016040624064406540668068806A806C806E80040A068007100E0A17401E081F1026102E802F103681375045A24D04A4
:4005C0004F0155205D845E205F0167408740B001C030C2C0C480CA50CCB0D0B0D6F0D88017012F0137014030410649FF4AFF4BFF4DA04F04501859045A045C105D015F01CF
:40060000604062C06440654066C068C06AC06CC06EC083018A0296029E04AD01AE01B004B201B402B701BE10C030C106C5D0C712C832C9FFCAFFCBFFCDAFCE0FCF04D01805
:40064000D280D405D804D904DA04DB04DC11DD11DF01E040E2C0E440E540E6C0E8C0EAC0ECC0EEC004100C080F0217401C101D081E081F01200226402B012F0131083F023C
:400680004010450848084C084F01540857015E885F017740C040C2A0C480CA18CC02CE80D042D224D6D04032420149FF4AFF4BFF4F0150185A045D095F0160406240644054
:4006C0006540668068806A806C806E80820F8404860289018A0D8B048E0F930397019A089B02A303A402A604B008B201B303B403B504B604BE45C032C201C9FFCAFFCBFF14
:40070000CD83CE03CF01D018D293D804D904DA04DB04DC99DD99DF01E040E240E440E540E680E880EA80EC80EE800510062007420D2017081C111D981E4027282D02372AAE
:400740003E204011412045A86C046F0A75027742940996409A20A120A588A70AAA20C0F0C240C420CA80CCE0CE20D07EE60200010278030F041A0664170D182E1A501F0312
:40078000202E22502B062C1A2D0A2E64310F327834073A303B024032420145EC4620480B49FF4AFF4BFF4D834E034F01501854035604580459045A045B045C995D995F01A8
:4007C0006040624064406540668068806A806C806E8004090E08168017801E2827802E802F0A360437803C0145A84D044F0155205D045E605F0165028502C030C240C490D4
:40080000CA30CC50CE80D070D6F0D880E002EE0802080E0F0F02120D1303170119011B04220F2402260428042A022F033003320434013504360837033E544025420349FF82
:400840004AFF4BFF4F0150185293580459045A045B045C995D995F016040624064406540668068806A806C806E808B018F01B501C025C203C9FFCAFFCBFFCD83CE03CF01A2
:40088000D018D904DA04DD09DF01E040E240E440E540E680E880EA80EC80EE80040207020E80168017281C101D681EA02304254027082E80372A38603D8040104120452814
:4008C0004A024E026C046F0A768077028720906094089B10A610A70AC090C210C470CA10CCE0CE1CD066D218EE084025420345EC4720482349FF4AFF4BFF4D834E034F01EA
:400900005018540356045A045B045D995F016040624064406540668068806A806C806E808301920596049E09A101AE02B002B101B204B401B608BE04C040C106C5D0C6202F
:40094000C710C82AC9FFCAFFCBFFCDA0CF04D018D280D405D804D904DA04DB04DF01E040E2C0E440E540E6C0E8C0EAC0ECC0EEC00E800F2217401D021E801F5427802F40F1
:400980003F0240104120450249054A024F2150015202571159455B105F856340670C774087408B109010940299409B10A120A602AF04C2B0C480CA80CE80D086D228D6DFA2
:4009C000D801E802334834223B10CCF0CE100004020407220A40310233103588831084028B0297109C229F40A708C0F0C210CCF0E220E64082048582900497109A049B20AE
:400A00009C209D889F40A502A708B640E080E2508710900497109B209C209D089F40A708E21058409840B040D401E801840508440C019C05C20E27408420872090049B2038
:400A40009C209F40A708AD08C880E040E610EE108708A708A804E640E82063406680AC40D601D8028B409740AE80E004100111011B011C011D0100FF01AF020203010000F8
:400A80000000000000010001010102011F1F0000000000004000000000000000C000000000F0F000A0000000000A0A00080000000C0F030000000000000000000000000037
:400AC00000000000000000000000000000000000000000000000000000000000000000000000000000000000000000000000000000000000000000000000000000000000F6
:400B000000000000000000000000000000000000000000000000000000000000000000000000000000000000000000000000000000000000000000000000000000000000B5
:400B40000000000000000000000000000000000000000000000000000000000000000000000000000000000000000000000000000000000000000000000000000000000075
:400B80000000000000000000000000000000000000000000000000000000000000000000000000000000000000000000000000000000000000000000000000000000000035
:0200000490006A
:0400000000004005B7
:0200000490105A
:04000000BC90ACAF55
:0200000490303A
:020000003B3D86
:0200000490402A
:4000000000000000000000000000000000000000000000000000000000000000000000000000000000000000000000000000000000000000000000000000000000000000C0
:400040000000000000000000000000000000000000000000000000000000000000000000000000000000000000000000000000000000000000000000000000000000000080
:400080000000000000000000000000000000000000000000000000000000000000000000000000000000000000000000000000000000000000000000000000000000000040
:4000C0000000000000000000000000000000000000000000000000000000000000000000000000000000000000000000000000000000000000000000000000000000000000
:0200000490501A
:0C00000000012E16106900012E314BA6E5
:00000001FF